:100000000C942A000C9447000C9447000C94470071
:100010000C9447000C9447000C9447000C94470044
:100020000C9447000C9447000C9447000C94280152
:100030000C9447000C9447000C9447000C94470024
:100040000C9447000C9447000C9447000C94470014
:100050000C94470011241FBECFE5D8E0DEBFCDBF12
:1000600010E0A0E6B0E0EAECF3E002C005900D92EB
:10007000A836B107D9F720E0A8E6B0E001C01D928C
:10008000AD39B207E1F70E9451000C94E3010C94E2
:10009000000080E10E94BC00089580E20E94BC0044
:1000A000089580E10E94B60080E20E94B6000E949E
:1000B000850141E069E470E081E090E00E949301F5
:1000C00041E06DE470E082E090E00E9493010E94C4
:1000D000B501FDCF813089F028F08230C9F083303E
:1000E00011F108954F3F21F48AB3682B6ABB08953C
:1000F0008AB3609568236ABB08954F3F21F487B3A4
:10010000682B67BB089587B36095682367BB089524
:100110004F3F21F484B3682B64BB089584B360958A
:10012000682364BB08954F3F21F481B3682B61BB02
:10013000089581B36095682361BB0895813051F0C3
:1001400028F0823059F0833069F008958BB3682726
:100150006BBB089588B3682768BB089585B368278B
:1001600065BB089582B3682762BB08954FEF682F7F
:1001700081E00E946A000895682F81E00E949E003D
:10018000089590936900809368000895FC0181812F
:10019000ACE6B0E08C93838111968C9311978281A9
:1001A00090E013969C938E9312978081882319F088
:1001B0008130C1F027C08181882319F0813069F036
:1001C00023C083B7877B83BF83818130F9F48FB7E6
:1001D00080688FBF81E089BF089583B7877B83BF25
:1001E00081E008958181882319F0813031F010C0B9
:1001F00085B5877B85BD81E0089585B5877B85BD05
:1002000081E0089581E0089580E0089581E00895F7
:1002100080E00895811112C0ECE6F0E080818081D9
:10022000811104C083B7826083BF089580916C0000
:10023000813069F483B7866083BF0895823039F4D2
:1002400080916C00811103C085B5826085BD0895E1
:100250001F920F920FB60F9211242F933F934F933B
:100260005F936F937F938F939F93AF93BF93EF931E
:10027000FF9380916A008F5F80936A0080916E0087
:1002800090916F00819582BF80916A00843039F42B
:1002900010926A00E0916800F09169000995FF9161
:1002A000EF91BF91AF919F918F917F916F915F91EE
:1002B0004F913F912F910F900FBE0F901F90189567
:1002C00080916B00882301F1E0E7F0E090E09C0171
:1002D000220F331F220F331F220F331F820F931F52
:1002E00080599F4F2781222359F0258136814081F3
:1002F00051812417350720F42F5F3F4F3683258324
:100300003996E817F90771F7089580E690E00E94A2
:10031000C600809167000E940A0180E691E00E9479
:10032000C10081E008959C0190916B009530D8F454
:10033000E92FF0E0DF01AA0FBB1FAA0FBB1FAA0F16
:10034000BB1FEA0FFB1FE059FF4F16821582318356
:10035000208381E0878344837383628390879F5FD8
:1003600090936B00089580E00895EF92FF920F93B1
:100370001F93CF93DF9380916B008823E9F0C0E750
:10038000D0E000E010E02D813E818881998128171E
:10039000390749F41E821D82EA81FB8109958C810F
:1003A000811101C01F820F5F1F4F299680916B0042
:1003B00090E0081719073CF3DF91CF911F910F913F
:0A03C000FF90EF900895F894FFCF2E
:0803CA000000FA010800010027
:00000001FF
